{
  "_format": "hh-sol-artifact-1",
  "contractName": "SendTransaction",
  "sourceName": "contracts/SendToken.sol",
  "abi": [
    {
      "anonymous": false,
      "inputs": [
        {
          "indexed": true,
          "internalType": "address",
          "name": "to",
          "type": "address"
        },
        {
          "indexed": false,
          "internalType": "uint256",
          "name": "amount",
          "type": "uint256"
        }
      ],
      "name": "EtherSent",
      "type": "event"
    },
    {
      "inputs": [],
      "name": "getBalance",
      "outputs": [
        {
          "internalType": "uint256",
          "name": "",
          "type": "uint256"
        }
      ],
      "stateMutability": "view",
      "type": "function"
    },
    {
      "inputs": [
        {
          "internalType": "address payable",
          "name": "_to",
          "type": "address"
        },
        {
          "internalType": "uint256",
          "name": "_amount",
          "type": "uint256"
        }
      ],
      "name": "sendEther",
      "outputs": [],
      "stateMutability": "nonpayable",
      "type": "function"
    },
    {
      "stateMutability": "payable",
      "type": "receive"
    }
  ],
  "bytecode": "0x608060405234801561001057600080fd5b50610436806100206000396000f3fe60806040526004361061002d5760003560e01c806312065fe014610039578063c1756a2c1461006457610034565b3661003457005b600080fd5b34801561004557600080fd5b5061004e61008d565b60405161005b919061030a565b60405180910390f35b34801561007057600080fd5b5061008b60048036038101906100869190610201565b610095565b005b600047905090565b804710156100d8576040517f08c379a00000000000000000000000000000000000000000000000000000000081526004016100cf906102ea565b60405180910390fd5b60008273ffffffffffffffffffffffffffffffffffffffff16826040516100fe906102b5565b60006040518083038185875af1925050503d806000811461013b576040519150601f19603f3d011682016040523d82523d6000602084013e610140565b606091505b5050905080610184576040517f08c379a000000000000000000000000000000000000000000000000000000000815260040161017b906102ca565b60405180910390fd5b8273ffffffffffffffffffffffffffffffffffffffff167f6109e2559dfa766aaec7118351d48a523f0a4157f49c8d68749c8ac41318ad12836040516101ca919061030a565b60405180910390a2505050565b6000813590506101e6816103d2565b92915050565b6000813590506101fb816103e9565b92915050565b6000806040838503121561021457600080fd5b6000610222858286016101d7565b9250506020610233858286016101ec565b9150509250929050565b600061024a601483610330565b91506102558261037d565b602082019050919050565b600061026d602083610330565b9150610278826103a6565b602082019050919050565b6000610290600083610325565b915061029b826103cf565b600082019050919050565b6102af81610373565b82525050565b60006102c082610283565b9150819050919050565b600060208201905081810360008301526102e38161023d565b9050919050565b6000602082019050818103600083015261030381610260565b9050919050565b600060208201905061031f60008301846102a6565b92915050565b600081905092915050565b600082825260208201905092915050565b600061034c82610353565b9050919050565b600073ffffffffffffffffffffffffffffffffffffffff82169050919050565b6000819050919050565b7f4661696c656420746f2073656e64204574686572000000000000000000000000600082015250565b7f496e73756666696369656e742062616c616e636520696e20636f6e7472616374600082015250565b50565b6103db81610341565b81146103e657600080fd5b50565b6103f281610373565b81146103fd57600080fd5b5056fea26469706673582212201b756a998fcbc00c98970127247e54429892482cd43eb92efef70f6cf8f2a49a64736f6c63430008040033",
  "linkReferences": {},
  "deployedLinkReferences": {}
}