{
  "_format": "hh-sol-artifact-1",
  "contractName": "InterchainTokenService",
  "sourceName": "contracts/InterchainTokenService.sol",
  "abi": [
    {
      "inputs": [
        {
          "internalType": "address",
          "name": "tokenManagerDeployer_",
          "type": "address"
        },
        {
          "internalType": "address",
          "name": "interchainTokenDeployer_",
          "type": "address"
        },
        {
          "internalType": "address",
          "name": "gateway_",
          "type": "address"
        },
        {
          "internalType": "address",
          "name": "gasService_",
          "type": "address"
        },
        {
          "internalType": "address",
          "name": "interchainTokenFactory_",
          "type": "address"
        },
        {
          "internalType": "string",
          "name": "chainName_",
          "type": "string"
        },
        {
          "internalType": "address",
          "name": "tokenManagerImplementation_",
          "type": "address"
        },
        {
          "internalType": "address",
          "name": "tokenHandler_",
          "type": "address"
        }
      ],
      "stateMutability": "nonpayable",
      "type": "constructor"
    },
    {
      "inputs": [],
      "name": "AlreadyExecuted",
      "type": "error"
    },
    {
      "inputs": [
        {
          "internalType": "enum ITokenManagerType.TokenManagerType",
          "name": "",
          "type": "uint8"
        }
      ],
      "name": "CannotDeploy",
      "type": "error"
    },
    {
      "inputs": [],
      "name": "EmptyData",
      "type": "error"
    },
    {
      "inputs": [
        {
          "internalType": "address",
          "name": "contractAddress",
          "type": "address"
        }
      ],
      "name": "ExecuteWithInterchainTokenFailed",
      "type": "error"
    },
    {
      "inputs": [],
      "name": "ExecuteWithTokenNotSupported",
      "type": "error"
    },
    {
      "inputs": [
        {
          "internalType": "address",
          "name": "contractAddress",
          "type": "address"
        }
      ],
      "name": "ExpressExecuteWithInterchainTokenFailed",
      "type": "error"
    },
    {
      "inputs": [],
      "name": "ExpressExecutorAlreadySet",
      "type": "error"
    },
    {
      "inputs": [],
      "name": "GatewayToken",
      "type": "error"
    },
    {
      "inputs": [
        {
          "internalType": "bytes",
          "name": "data",
          "type": "bytes"
        }
      ],
      "name": "GiveTokenFailed",
      "type": "error"
    },
    {
      "inputs": [],
      "name": "InsufficientValue",
      "type": "error"
    },
    {
      "inputs": [
        {
          "internalType": "bytes",
          "name": "error",
          "type": "bytes"
        }
      ],
      "name": "InterchainTokenDeploymentFailed",
      "type": "error"
    },
    {
      "inputs": [],
      "name": "InvalidAddress",
      "type": "error"
    },
    {
      "inputs": [
        {
          "internalType": "bytes",
          "name": "bytesAddress",
          "type": "bytes"
        }
      ],
      "name": "InvalidBytesLength",
      "type": "error"
    },
    {
      "inputs": [],
      "name": "InvalidChainName",
      "type": "error"
    },
    {
      "inputs": [],
      "name": "InvalidCodeHash",
      "type": "error"
    },
    {
      "inputs": [
        {
          "internalType": "uint256",
          "name": "messageType",
          "type": "uint256"
        }
      ],
      "name": "InvalidExpressMessageType",
      "type": "error"
    },
    {
      "inputs": [
        {
          "internalType": "bytes32",
          "name": "tokenId",
          "type": "bytes32"
        },
        {
          "internalType": "bytes",
          "name": "payload",
          "type": "bytes"
        },
        {
          "internalType": "string",
          "name": "tokenSymbol",
          "type": "string"
        },
        {
          "internalType": "uint256",
          "name": "amount",
          "type": "uint256"
        }
      ],
      "name": "InvalidGatewayTokenTransfer",
      "type": "error"
    },
    {
      "inputs": [],
      "name": "InvalidImplementation",
      "type": "error"
    },
    {
      "inputs": [
        {
          "internalType": "uint256",
          "name": "messageType",
          "type": "uint256"
        }
      ],
      "name": "InvalidMessageType",
      "type": "error"
    },
    {
      "inputs": [
        {
          "internalType": "uint32",
          "name": "version",
          "type": "uint32"
        }
      ],
      "name": "InvalidMetadataVersion",
      "type": "error"
    },
    {
      "inputs": [],
      "name": "InvalidOwner",
      "type": "error"
    },
    {
      "inputs": [],
      "name": "InvalidOwnerAddress",
      "type": "error"
    },
    {
      "inputs": [
        {
          "internalType": "address",
          "name": "fromAccount",
          "type": "address"
        },
        {
          "internalType": "address",
          "name": "toAccount",
          "type": "address"
        },
        {
          "internalType": "uint256",
          "name": "accountRoles",
          "type": "uint256"
        }
      ],
      "name": "InvalidProposedRoles",
      "type": "error"
    },
    {
      "inputs": [
        {
          "internalType": "address",
          "name": "implementation",
          "type": "address"
        }
      ],
      "name": "InvalidTokenManagerImplementationType",
      "type": "error"
    },
    {
      "inputs": [],
      "name": "LengthMismatch",
      "type": "error"
    },
    {
      "inputs": [
        {
          "internalType": "address",
          "name": "account",
          "type": "address"
        },
        {
          "internalType": "uint256",
          "name": "accountRoles",
          "type": "uint256"
        }
      ],
      "name": "MissingAllRoles",
      "type": "error"
    },
    {
      "inputs": [
        {
          "internalType": "address",
          "name": "account",
          "type": "address"
        },
        {
          "internalType": "uint256",
          "name": "accountRoles",
          "type": "uint256"
        }
      ],
      "name": "MissingAnyOfRoles",
      "type": "error"
    },
    {
      "inputs": [
        {
          "internalType": "address",
          "name": "account",
          "type": "address"
        },
        {
          "internalType": "uint8",
          "name": "role",
          "type": "uint8"
        }
      ],
      "name": "MissingRole",
      "type": "error"
    },
    {
      "inputs": [],
      "name": "MulticallFailed",
      "type": "error"
    },
    {
      "inputs": [],
      "name": "NotApprovedByGateway",
      "type": "error"
    },
    {
      "inputs": [],
      "name": "NotOwner",
      "type": "error"
    },
    {
      "inputs": [],
      "name": "NotPaused",
      "type": "error"
    },
    {
      "inputs": [],
      "name": "NotProxy",
      "type": "error"
    },
    {
      "inputs": [],
      "name": "NotRemoteService",
      "type": "error"
    },
    {
      "inputs": [],
      "name": "Pause",
      "type": "error"
    },
    {
      "inputs": [
        {
          "internalType": "bytes",
          "name": "data",
          "type": "bytes"
        }
      ],
      "name": "PostDeployFailed",
      "type": "error"
    },
    {
      "inputs": [],
      "name": "SetupFailed",
      "type": "error"
    },
    {
      "inputs": [
        {
          "internalType": "bytes",
          "name": "data",
          "type": "bytes"
        }
      ],
      "name": "TakeTokenFailed",
      "type": "error"
    },
    {
      "inputs": [
        {
          "internalType": "bytes",
          "name": "data",
          "type": "bytes"
        }
      ],
      "name": "TokenHandlerFailed",
      "type": "error"
    },
    {
      "inputs": [
        {
          "internalType": "bytes",
          "name": "error",
          "type": "bytes"
        }
      ],
      "name": "TokenManagerDeploymentFailed",
      "type": "error"
    },
    {
      "inputs": [
        {
          "internalType": "bytes32",
          "name": "tokenId",
          "type": "bytes32"
        }
      ],
      "name": "TokenManagerDoesNotExist",
      "type": "error"
    },
    {
      "inputs": [],
      "name": "UntrustedChain",
      "type": "error"
    },
    {
      "inputs": [],
      "name": "ZeroAddress",
      "type": "error"
    },
    {
      "inputs": [],
      "name": "ZeroAmount",
      "type": "error"
    },
    {
      "inputs": [],
      "name": "ZeroStringLength",
      "type": "error"
    },
    {
      "anonymous": false,
      "inputs": [
        {
          "indexed": true,
          "internalType": "bytes32",
          "name": "commandId",
          "type": "bytes32"
        },
        {
          "indexed": false,
          "internalType": "string",
          "name": "sourceChain",
          "type": "string"
        },
        {
          "indexed": false,
          "internalType": "string",
          "name": "sourceAddress",
          "type": "string"
        },
        {
          "indexed": false,
          "internalType": "bytes32",
          "name": "payloadHash",
          "type": "bytes32"
        },
        {
          "indexed": true,
          "internalType": "address",
          "name": "expressExecutor",
          "type": "address"
        }
      ],
      "name": "ExpressExecuted",
      "type": "event"
    },
    {
      "anonymous": false,
      "inputs": [
        {
          "indexed": true,
          "internalType": "bytes32",
          "name": "commandId",
          "type": "bytes32"
        },
        {
          "indexed": false,
          "internalType": "string",
          "name": "sourceChain",
          "type": "string"
        },
        {
          "indexed": false,
          "internalType": "string",
          "name": "sourceAddress",
          "type": "string"
        },
        {
          "indexed": false,
          "internalType": "bytes32",
          "name": "payloadHash",
          "type": "bytes32"
        },
        {
          "indexed": false,
          "internalType": "string",
          "name": "symbol",
          "type": "string"
        },
        {
          "indexed": true,
          "internalType": "uint256",
          "name": "amount",
          "type": "uint256"
        },
        {
          "indexed": true,
          "internalType": "address",
          "name": "expressExecutor",
          "type": "address"
        }
      ],
      "name": "ExpressExecutedWithToken",
      "type": "event"
    },
    {
      "anonymous": false,
      "inputs": [
        {
          "indexed": true,
          "internalType": "bytes32",
          "name": "commandId",
          "type": "bytes32"
        },
        {
          "indexed": false,
          "internalType": "string",
          "name": "sourceChain",
          "type": "string"
        },
        {
          "indexed": false,
          "internalType": "string",
          "name": "sourceAddress",
          "type": "string"
        },
        {
          "indexed": false,
          "internalType": "bytes32",
          "name": "payloadHash",
          "type": "bytes32"
        },
        {
          "indexed": true,
          "internalType": "address",
          "name": "expressExecutor",
          "type": "address"
        }
      ],
      "name": "ExpressExecutionFulfilled",
      "type": "event"
    },
    {
      "anonymous": false,
      "inputs": [
        {
          "indexed": true,
          "internalType": "bytes32",
          "name": "commandId",
          "type": "bytes32"
        },
        {
          "indexed": false,
          "internalType": "string",
          "name": "sourceChain",
          "type": "string"
        },
        {
          "indexed": false,
          "internalType": "string",
          "name": "sourceAddress",
          "type": "string"
        },
        {
          "indexed": false,
          "internalType": "bytes32",
          "name": "payloadHash",
          "type": "bytes32"
        },
        {
          "indexed": false,
          "internalType": "string",
          "name": "symbol",
          "type": "string"
        },
        {
          "indexed": true,
          "internalType": "uint256",
          "name": "amount",
          "type": "uint256"
        },
        {
          "indexed": true,
          "internalType": "address",
          "name": "expressExecutor",
          "type": "address"
        }
      ],
      "name": "ExpressExecutionWithTokenFulfilled",
      "type": "event"
    },
    {
      "anonymous": false,
      "inputs": [
        {
          "indexed": true,
          "internalType": "bytes32",
          "name": "tokenId",
          "type": "bytes32"
        },
        {
          "indexed": false,
          "internalType": "address",
          "name": "tokenAddress",
          "type": "address"
        },
        {
          "indexed": true,
          "internalType": "address",
          "name": "minter",
          "type": "address"
        },
        {
          "indexed": false,
          "internalType": "string",
          "name": "name",
          "type": "string"
        },
        {
          "indexed": false,
          "internalType": "string",
          "name": "symbol",
          "type": "string"
        },
        {
          "indexed": false,
          "internalType": "uint8",
          "name": "decimals",
          "type": "uint8"
        }
      ],
      "name": "InterchainTokenDeployed",
      "type": "event"
    },
    {
      "anonymous": false,
      "inputs": [
        {
          "indexed": true,
          "internalType": "bytes32",
          "name": "tokenId",
          "type": "bytes32"
        },
        {
          "indexed": false,
          "internalType": "string",
          "name": "tokenName",
          "type": "string"
        },
        {
          "indexed": false,
          "internalType": "string",
          "name": "tokenSymbol",
          "type": "string"
        },
        {
          "indexed": false,
          "internalType": "uint8",
          "name": "tokenDecimals",
          "type": "uint8"
        },
        {
          "indexed": false,
          "internalType": "bytes",
          "name": "minter",
          "type": "bytes"
        },
        {
          "indexed": false,
          "internalType": "string",
          "name": "destinationChain",
          "type": "string"
        }
      ],
      "name": "InterchainTokenDeploymentStarted",
      "type": "event"
    },
    {
      "anonymous": false,
      "inputs": [
        {
          "indexed": true,
          "internalType": "bytes32",
          "name": "tokenId",
          "type": "bytes32"
        },
        {
          "indexed": true,
          "internalType": "address",
          "name": "deployer",
          "type": "address"
        },
        {
          "indexed": true,
          "internalType": "bytes32",
          "name": "salt",
          "type": "bytes32"
        }
      ],
      "name": "InterchainTokenIdClaimed",
      "type": "event"
    },
    {
      "anonymous": false,
      "inputs": [
        {
          "indexed": true,
          "internalType": "bytes32",
          "name": "tokenId",
          "type": "bytes32"
        },
        {
          "indexed": true,
          "internalType": "address",
          "name": "sourceAddress",
          "type": "address"
        },
        {
          "indexed": false,
          "internalType": "string",
          "name": "destinationChain",
          "type": "string"
        },
        {
          "indexed": false,
          "internalType": "bytes",
          "name": "destinationAddress",
          "type": "bytes"
        },
        {
          "indexed": false,
          "internalType": "uint256",
          "name": "amount",
          "type": "uint256"
        },
        {
          "indexed": true,
          "internalType": "bytes32",
          "name": "dataHash",
          "type": "bytes32"
        }
      ],
      "name": "InterchainTransfer",
      "type": "event"
    },
    {
      "anonymous": false,
      "inputs": [
        {
          "indexed": true,
          "internalType": "bytes32",
          "name": "commandId",
          "type": "bytes32"
        },
        {
          "indexed": true,
          "internalType": "bytes32",
          "name": "tokenId",
          "type": "bytes32"
        },
        {
          "indexed": false,
          "internalType": "string",
          "name": "sourceChain",
          "type": "string"
        },
        {
          "indexed": false,
          "internalType": "bytes",
          "name": "sourceAddress",
          "type": "bytes"
        },
        {
          "indexed": true,
          "internalType": "address",
          "name": "destinationAddress",
          "type": "address"
        },
        {
          "indexed": false,
          "internalType": "uint256",
          "name": "amount",
          "type": "uint256"
        },
        {
          "indexed": false,
          "internalType": "bytes32",
          "name": "dataHash",
          "type": "bytes32"
        }
      ],
      "name": "InterchainTransferReceived",
      "type": "event"
    },
    {
      "anonymous": false,
      "inputs": [
        {
          "indexed": true,
          "internalType": "address",
          "name": "newOwner",
          "type": "address"
        }
      ],
      "name": "OwnershipTransferStarted",
      "type": "event"
    },
    {
      "anonymous": false,
      "inputs": [
        {
          "indexed": true,
          "internalType": "address",
          "name": "newOwner",
          "type": "address"
        }
      ],
      "name": "OwnershipTransferred",
      "type": "event"
    },
    {
      "anonymous": false,
      "inputs": [
        {
          "indexed": true,
          "internalType": "address",
          "name": "account",
          "type": "address"
        }
      ],
      "name": "Paused",
      "type": "event"
    },
    {
      "anonymous": false,
      "inputs": [
        {
          "indexed": true,
          "internalType": "address",
          "name": "account",
          "type": "address"
        },
        {
          "indexed": false,
          "internalType": "uint256",
          "name": "accountRoles",
          "type": "uint256"
        }
      ],
      "name": "RolesAdded",
      "type": "event"
    },
    {
      "anonymous": false,
      "inputs": [
        {
          "indexed": true,
          "internalType": "address",
          "name": "fromAccount",
          "type": "address"
        },
        {
          "indexed": true,
          "internalType": "address",
          "name": "toAccount",
          "type": "address"
        },
        {
          "indexed": false,
          "internalType": "uint256",
          "name": "accountRoles",
          "type": "uint256"
        }
      ],
      "name": "RolesProposed",
      "type": "event"
    },
    {
      "anonymous": false,
      "inputs": [
        {
          "indexed": true,
          "internalType": "address",
          "name": "account",
          "type": "address"
        },
        {
          "indexed": false,
          "internalType": "uint256",
          "name": "accountRoles",
          "type": "uint256"
        }
      ],
      "name": "RolesRemoved",
      "type": "event"
    },
    {
      "anonymous": false,
      "inputs": [
        {
          "indexed": true,
          "internalType": "bytes32",
          "name": "tokenId",
          "type": "bytes32"
        },
        {
          "indexed": false,
          "internalType": "address",
          "name": "tokenManager",
          "type": "address"
        },
        {
          "indexed": true,
          "internalType": "enum ITokenManagerType.TokenManagerType",
          "name": "tokenManagerType",
          "type": "uint8"
        },
        {
          "indexed": false,
          "internalType": "bytes",
          "name": "params",
          "type": "bytes"
        }
      ],
      "name": "TokenManagerDeployed",
      "type": "event"
    },
    {
      "anonymous": false,
      "inputs": [
        {
          "indexed": true,
          "internalType": "bytes32",
          "name": "tokenId",
          "type": "bytes32"
        },
        {
          "indexed": false,
          "internalType": "string",
          "name": "destinationChain",
          "type": "string"
        },
        {
          "indexed": true,
          "internalType": "enum ITokenManagerType.TokenManagerType",
          "name": "tokenManagerType",
          "type": "uint8"
        },
        {
          "indexed": false,
          "internalType": "bytes",
          "name": "params",
          "type": "bytes"
        }
      ],
      "name": "TokenManagerDeploymentStarted",
      "type": "event"
    },
    {
      "anonymous": false,
      "inputs": [
        {
          "indexed": false,
          "internalType": "string",
          "name": "chain",
          "type": "string"
        }
      ],
      "name": "TrustedAddressRemoved",
      "type": "event"
    },
    {
      "anonymous": false,
      "inputs": [
        {
          "indexed": false,
          "internalType": "string",
          "name": "chain",
          "type": "string"
        },
        {
          "indexed": false,
          "internalType": "string",
          "name": "address_",
          "type": "string"
        }
      ],
      "name": "TrustedAddressSet",
      "type": "event"
    },
    {
      "anonymous": false,
      "inputs": [
        {
          "indexed": true,
          "internalType": "address",
          "name": "account",
          "type": "address"
        }
      ],
      "name": "Unpaused",
      "type": "event"
    },
    {
      "anonymous": false,
      "inputs": [
        {
          "indexed": true,
          "internalType": "address",
          "name": "newImplementation",
          "type": "address"
        }
      ],
      "name": "Upgraded",
      "type": "event"
    },
    {
      "inputs": [
        {
          "internalType": "address",
          "name": "fromOperator",
          "type": "address"
        }
      ],
      "name": "acceptOperatorship",
      "outputs": [],
      "stateMutability": "nonpayable",
      "type": "function"
    },
    {
      "inputs": [],
      "name": "acceptOwnership",
      "outputs": [],
      "stateMutability": "nonpayable",
      "type": "function"
    },
    {
      "inputs": [
        {
          "internalType": "bytes32",
          "name": "tokenId",
          "type": "bytes32"
        },
        {
          "internalType": "string",
          "name": "destinationChain",
          "type": "string"
        },
        {
          "internalType": "bytes",
          "name": "destinationAddress",
          "type": "bytes"
        },
        {
          "internalType": "uint256",
          "name": "amount",
          "type": "uint256"
        },
        {
          "internalType": "bytes",
          "name": "data",
          "type": "bytes"
        },
        {
          "internalType": "uint256",
          "name": "gasValue",
          "type": "uint256"
        }
      ],
      "name": "callContractWithInterchainToken",
      "outputs": [],
      "stateMutability": "payable",
      "type": "function"
    },
    {
      "inputs": [],
      "name": "chainName",
      "outputs": [
        {
          "internalType": "string",
          "name": "chainName_",
          "type": "string"
        }
      ],
      "stateMutability": "view",
      "type": "function"
    },
    {
      "inputs": [],
      "name": "chainNameHash",
      "outputs": [
        {
          "internalType": "bytes32",
          "name": "",
          "type": "bytes32"
        }
      ],
      "stateMutability": "view",
      "type": "function"
    },
    {
      "inputs": [
        {
          "internalType": "string",
          "name": "sourceChain",
          "type": "string"
        },
        {
          "internalType": "string",
          "name": "sourceAddress",
          "type": "string"
        },
        {
          "internalType": "bytes",
          "name": "payload",
          "type": "bytes"
        }
      ],
      "name": "contractCallValue",
      "outputs": [
        {
          "internalType": "address",
          "name": "",
          "type": "address"
        },
        {
          "internalType": "uint256",
          "name": "",
          "type": "uint256"
        }
      ],
      "stateMutability": "view",
      "type": "function"
    },
    {
      "inputs": [
        {
          "internalType": "string",
          "name": "sourceChain",
          "type": "string"
        },
        {
          "internalType": "string",
          "name": "sourceAddress",
          "type": "string"
        },
        {
          "internalType": "bytes",
          "name": "payload",
          "type": "bytes"
        },
        {
          "internalType": "string",
          "name": "symbol",
          "type": "string"
        },
        {
          "internalType": "uint256",
          "name": "amount",
          "type": "uint256"
        }
      ],
      "name": "contractCallWithTokenValue",
      "outputs": [
        {
          "internalType": "address",
          "name": "",
          "type": "address"
        },
        {
          "internalType": "uint256",
          "name": "",
          "type": "uint256"
        }
      ],
      "stateMutability": "view",
      "type": "function"
    },
    {
      "inputs": [],
      "name": "contractId",
      "outputs": [
        {
          "internalType": "bytes32",
          "name": "",
          "type": "bytes32"
        }
      ],
      "stateMutability": "pure",
      "type": "function"
    },
    {
      "inputs": [
        {
          "internalType": "bytes32",
          "name": "salt",
          "type": "bytes32"
        },
        {
          "internalType": "string",
          "name": "destinationChain",
          "type": "string"
        },
        {
          "internalType": "string",
          "name": "name",
          "type": "string"
        },
        {
          "internalType": "string",
          "name": "symbol",
          "type": "string"
        },
        {
          "internalType": "uint8",
          "name": "decimals",
          "type": "uint8"
        },
        {
          "internalType": "bytes",
          "name": "minter",
          "type": "bytes"
        },
        {
          "internalType": "uint256",
          "name": "gasValue",
          "type": "uint256"
        }
      ],
      "name": "deployInterchainToken",
      "outputs": [
        {
          "internalType": "bytes32",
          "name": "tokenId",
          "type": "bytes32"
        }
      ],
      "stateMutability": "payable",
      "type": "function"
    },
    {
      "inputs": [
        {
          "internalType": "bytes32",
          "name": "salt",
          "type": "bytes32"
        },
        {
          "internalType": "string",
          "name": "destinationChain",
          "type": "string"
        },
        {
          "internalType": "enum ITokenManagerType.TokenManagerType",
          "name": "tokenManagerType",
          "type": "uint8"
        },
        {
          "internalType": "bytes",
          "name": "params",
          "type": "bytes"
        },
        {
          "internalType": "uint256",
          "name": "gasValue",
          "type": "uint256"
        }
      ],
      "name": "deployTokenManager",
      "outputs": [
        {
          "internalType": "bytes32",
          "name": "tokenId",
          "type": "bytes32"
        }
      ],
      "stateMutability": "payable",
      "type": "function"
    },
    {
      "inputs": [
        {
          "internalType": "bytes32",
          "name": "commandId",
          "type": "bytes32"
        },
        {
          "internalType": "string",
          "name": "sourceChain",
          "type": "string"
        },
        {
          "internalType": "string",
          "name": "sourceAddress",
          "type": "string"
        },
        {
          "internalType": "bytes",
          "name": "payload",
          "type": "bytes"
        }
      ],
      "name": "execute",
      "outputs": [],
      "stateMutability": "nonpayable",
      "type": "function"
    },
    {
      "inputs": [
        {
          "internalType": "bytes32",
          "name": "commandId",
          "type": "bytes32"
        },
        {
          "internalType": "string",
          "name": "sourceChain",
          "type": "string"
        },
        {
          "internalType": "string",
          "name": "sourceAddress",
          "type": "string"
        },
        {
          "internalType": "bytes",
          "name": "payload",
          "type": "bytes"
        },
        {
          "internalType": "string",
          "name": "tokenSymbol",
          "type": "string"
        },
        {
          "internalType": "uint256",
          "name": "amount",
          "type": "uint256"
        }
      ],
      "name": "executeWithToken",
      "outputs": [],
      "stateMutability": "nonpayable",
      "type": "function"
    },
    {
      "inputs": [
        {
          "internalType": "bytes32",
          "name": "commandId",
          "type": "bytes32"
        },
        {
          "internalType": "string",
          "name": "sourceChain",
          "type": "string"
        },
        {
          "internalType": "string",
          "name": "sourceAddress",
          "type": "string"
        },
        {
          "internalType": "bytes",
          "name": "payload",
          "type": "bytes"
        }
      ],
      "name": "expressExecute",
      "outputs": [],
      "stateMutability": "payable",
      "type": "function"
    },
    {
      "inputs": [
        {
          "internalType": "bytes32",
          "name": "commandId",
          "type": "bytes32"
        },
        {
          "internalType": "string",
          "name": "sourceChain",
          "type": "string"
        },
        {
          "internalType": "string",
          "name": "sourceAddress",
          "type": "string"
        },
        {
          "internalType": "bytes",
          "name": "payload",
          "type": "bytes"
        },
        {
          "internalType": "string",
          "name": "tokenSymbol",
          "type": "string"
        },
        {
          "internalType": "uint256",
          "name": "amount",
          "type": "uint256"
        }
      ],
      "name": "expressExecuteWithToken",
      "outputs": [],
      "stateMutability": "payable",
      "type": "function"
    },
    {
      "inputs": [
        {
          "internalType": "bytes32",
          "name": "tokenId",
          "type": "bytes32"
        }
      ],
      "name": "flowInAmount",
      "outputs": [
        {
          "internalType": "uint256",
          "name": "flowInAmount_",
          "type": "uint256"
        }
      ],
      "stateMutability": "view",
      "type": "function"
    },
    {
      "inputs": [
        {
          "internalType": "bytes32",
          "name": "tokenId",
          "type": "bytes32"
        }
      ],
      "name": "flowLimit",
      "outputs": [
        {
          "internalType": "uint256",
          "name": "flowLimit_",
          "type": "uint256"
        }
      ],
      "stateMutability": "view",
      "type": "function"
    },
    {
      "inputs": [
        {
          "internalType": "bytes32",
          "name": "tokenId",
          "type": "bytes32"
        }
      ],
      "name": "flowOutAmount",
      "outputs": [
        {
          "internalType": "uint256",
          "name": "flowOutAmount_",
          "type": "uint256"
        }
      ],
      "stateMutability": "view",
      "type": "function"
    },
    {
      "inputs": [],
      "name": "gasService",
      "outputs": [
        {
          "internalType": "contract IAxelarGasService",
          "name": "",
          "type": "address"
        }
      ],
      "stateMutability": "view",
      "type": "function"
    },
    {
      "inputs": [],
      "name": "gateway",
      "outputs": [
        {
          "internalType": "contract IAxelarGateway",
          "name": "",
          "type": "address"
        }
      ],
      "stateMutability": "view",
      "type": "function"
    },
    {
      "inputs": [
        {
          "internalType": "bytes32",
          "name": "commandId",
          "type": "bytes32"
        },
        {
          "internalType": "string",
          "name": "sourceChain",
          "type": "string"
        },
        {
          "internalType": "string",
          "name": "sourceAddress",
          "type": "string"
        },
        {
          "internalType": "bytes32",
          "name": "payloadHash",
          "type": "bytes32"
        }
      ],
      "name": "getExpressExecutor",
      "outputs": [
        {
          "internalType": "address",
          "name": "expressExecutor",
          "type": "address"
        }
      ],
      "stateMutability": "view",
      "type": "function"
    },
    {
      "inputs": [
        {
          "internalType": "bytes32",
          "name": "commandId",
          "type": "bytes32"
        },
        {
          "internalType": "string",
          "name": "sourceChain",
          "type": "string"
        },
        {
          "internalType": "string",
          "name": "sourceAddress",
          "type": "string"
        },
        {
          "internalType": "bytes32",
          "name": "payloadHash",
          "type": "bytes32"
        },
        {
          "internalType": "string",
          "name": "symbol",
          "type": "string"
        },
        {
          "internalType": "uint256",
          "name": "amount",
          "type": "uint256"
        }
      ],
      "name": "getExpressExecutorWithToken",
      "outputs": [
        {
          "internalType": "address",
          "name": "expressExecutor",
          "type": "address"
        }
      ],
      "stateMutability": "view",
      "type": "function"
    },
    {
      "inputs": [
        {
          "internalType": "address",
          "name": "account",
          "type": "address"
        },
        {
          "internalType": "uint8",
          "name": "role",
          "type": "uint8"
        }
      ],
      "name": "hasRole",
      "outputs": [
        {
          "internalType": "bool",
          "name": "",
          "type": "bool"
        }
      ],
      "stateMutability": "view",
      "type": "function"
    },
    {
      "inputs": [],
      "name": "implementation",
      "outputs": [
        {
          "internalType": "address",
          "name": "implementation_",
          "type": "address"
        }
      ],
      "stateMutability": "view",
      "type": "function"
    },
    {
      "inputs": [
        {
          "internalType": "bytes32",
          "name": "tokenId",
          "type": "bytes32"
        }
      ],
      "name": "interchainTokenAddress",
      "outputs": [
        {
          "internalType": "address",
          "name": "tokenAddress",
          "type": "address"
        }
      ],
      "stateMutability": "view",
      "type": "function"
    },
    {
      "inputs": [],
      "name": "interchainTokenDeployer",
      "outputs": [
        {
          "internalType": "address",
          "name": "",
          "type": "address"
        }
      ],
      "stateMutability": "view",
      "type": "function"
    },
    {
      "inputs": [],
      "name": "interchainTokenFactory",
      "outputs": [
        {
          "internalType": "address",
          "name": "",
          "type": "address"
        }
      ],
      "stateMutability": "view",
      "type": "function"
    },
    {
      "inputs": [
        {
          "internalType": "address",
          "name": "sender",
          "type": "address"
        },
        {
          "internalType": "bytes32",
          "name": "salt",
          "type": "bytes32"
        }
      ],
      "name": "interchainTokenId",
      "outputs": [
        {
          "internalType": "bytes32",
          "name": "tokenId",
          "type": "bytes32"
        }
      ],
      "stateMutability": "pure",
      "type": "function"
    },
    {
      "inputs": [
        {
          "internalType": "bytes32",
          "name": "tokenId",
          "type": "bytes32"
        },
        {
          "internalType": "string",
          "name": "destinationChain",
          "type": "string"
        },
        {
          "internalType": "bytes",
          "name": "destinationAddress",
          "type": "bytes"
        },
        {
          "internalType": "uint256",
          "name": "amount",
          "type": "uint256"
        },
        {
          "internalType": "bytes",
          "name": "metadata",
          "type": "bytes"
        },
        {
          "internalType": "uint256",
          "name": "gasValue",
          "type": "uint256"
        }
      ],
      "name": "interchainTransfer",
      "outputs": [],
      "stateMutability": "payable",
      "type": "function"
    },
    {
      "inputs": [
        {
          "internalType": "address",
          "name": "addr",
          "type": "address"
        }
      ],
      "name": "isOperator",
      "outputs": [
        {
          "internalType": "bool",
          "name": "",
          "type": "bool"
        }
      ],
      "stateMutability": "view",
      "type": "function"
    },
    {
      "inputs": [
        {
          "internalType": "string",
          "name": "chain",
          "type": "string"
        },
        {
          "internalType": "string",
          "name": "address_",
          "type": "string"
        }
      ],
      "name": "isTrustedAddress",
      "outputs": [
        {
          "internalType": "bool",
          "name": "",
          "type": "bool"
        }
      ],
      "stateMutability": "view",
      "type": "function"
    },
    {
      "inputs": [
        {
          "internalType": "bytes[]",
          "name": "data",
          "type": "bytes[]"
        }
      ],
      "name": "multicall",
      "outputs": [
        {
          "internalType": "bytes[]",
          "name": "results",
          "type": "bytes[]"
        }
      ],
      "stateMutability": "payable",
      "type": "function"
    },
    {
      "inputs": [],
      "name": "owner",
      "outputs": [
        {
          "internalType": "address",
          "name": "owner_",
          "type": "address"
        }
      ],
      "stateMutability": "view",
      "type": "function"
    },
    {
      "inputs": [],
      "name": "paused",
      "outputs": [
        {
          "internalType": "bool",
          "name": "paused_",
          "type": "bool"
        }
      ],
      "stateMutability": "view",
      "type": "function"
    },
    {
      "inputs": [],
      "name": "pendingOwner",
      "outputs": [
        {
          "internalType": "address",
          "name": "owner_",
          "type": "address"
        }
      ],
      "stateMutability": "view",
      "type": "function"
    },
    {
      "inputs": [
        {
          "internalType": "address",
          "name": "operator",
          "type": "address"
        }
      ],
      "name": "proposeOperatorship",
      "outputs": [],
      "stateMutability": "nonpayable",
      "type": "function"
    },
    {
      "inputs": [
        {
          "internalType": "address",
          "name": "newOwner",
          "type": "address"
        }
      ],
      "name": "proposeOwnership",
      "outputs": [],
      "stateMutability": "nonpayable",
      "type": "function"
    },
    {
      "inputs": [
        {
          "internalType": "string",
          "name": "chain",
          "type": "string"
        }
      ],
      "name": "removeTrustedAddress",
      "outputs": [],
      "stateMutability": "nonpayable",
      "type": "function"
    },
    {
      "inputs": [
        {
          "internalType": "bytes32[]",
          "name": "tokenIds",
          "type": "bytes32[]"
        },
        {
          "internalType": "uint256[]",
          "name": "flowLimits",
          "type": "uint256[]"
        }
      ],
      "name": "setFlowLimits",
      "outputs": [],
      "stateMutability": "nonpayable",
      "type": "function"
    },
    {
      "inputs": [
        {
          "internalType": "bool",
          "name": "paused",
          "type": "bool"
        }
      ],
      "name": "setPauseStatus",
      "outputs": [],
      "stateMutability": "nonpayable",
      "type": "function"
    },
    {
      "inputs": [
        {
          "internalType": "string",
          "name": "chain",
          "type": "string"
        },
        {
          "internalType": "string",
          "name": "address_",
          "type": "string"
        }
      ],
      "name": "setTrustedAddress",
      "outputs": [],
      "stateMutability": "nonpayable",
      "type": "function"
    },
    {
      "inputs": [
        {
          "internalType": "bytes",
          "name": "data",
          "type": "bytes"
        }
      ],
      "name": "setup",
      "outputs": [],
      "stateMutability": "nonpayable",
      "type": "function"
    },
    {
      "inputs": [],
      "name": "tokenHandler",
      "outputs": [
        {
          "internalType": "address",
          "name": "",
          "type": "address"
        }
      ],
      "stateMutability": "view",
      "type": "function"
    },
    {
      "inputs": [],
      "name": "tokenManager",
      "outputs": [
        {
          "internalType": "address",
          "name": "",
          "type": "address"
        }
      ],
      "stateMutability": "view",
      "type": "function"
    },
    {
      "inputs": [
        {
          "internalType": "bytes32",
          "name": "tokenId",
          "type": "bytes32"
        }
      ],
      "name": "tokenManagerAddress",
      "outputs": [
        {
          "internalType": "address",
          "name": "tokenManagerAddress_",
          "type": "address"
        }
      ],
      "stateMutability": "view",
      "type": "function"
    },
    {
      "inputs": [],
      "name": "tokenManagerDeployer",
      "outputs": [
        {
          "internalType": "address",
          "name": "",
          "type": "address"
        }
      ],
      "stateMutability": "view",
      "type": "function"
    },
    {
      "inputs": [
        {
          "internalType": "uint256",
          "name": "",
          "type": "uint256"
        }
      ],
      "name": "tokenManagerImplementation",
      "outputs": [
        {
          "internalType": "address",
          "name": "",
          "type": "address"
        }
      ],
      "stateMutability": "view",
      "type": "function"
    },
    {
      "inputs": [
        {
          "internalType": "address",
          "name": "operator",
          "type": "address"
        }
      ],
      "name": "transferOperatorship",
      "outputs": [],
      "stateMutability": "nonpayable",
      "type": "function"
    },
    {
      "inputs": [
        {
          "internalType": "address",
          "name": "newOwner",
          "type": "address"
        }
      ],
      "name": "transferOwnership",
      "outputs": [],
      "stateMutability": "nonpayable",
      "type": "function"
    },
    {
      "inputs": [
        {
          "internalType": "bytes32",
          "name": "tokenId",
          "type": "bytes32"
        },
        {
          "internalType": "address",
          "name": "sourceAddress",
          "type": "address"
        },
        {
          "internalType": "string",
          "name": "destinationChain",
          "type": "string"
        },
        {
          "internalType": "bytes",
          "name": "destinationAddress",
          "type": "bytes"
        },
        {
          "internalType": "uint256",
          "name": "amount",
          "type": "uint256"
        },
        {
          "internalType": "bytes",
          "name": "metadata",
          "type": "bytes"
        }
      ],
      "name": "transmitInterchainTransfer",
      "outputs": [],
      "stateMutability": "payable",
      "type": "function"
    },
    {
      "inputs": [
        {
          "internalType": "string",
          "name": "chain",
          "type": "string"
        }
      ],
      "name": "trustedAddress",
      "outputs": [
        {
          "internalType": "string",
          "name": "trustedAddress_",
          "type": "string"
        }
      ],
      "stateMutability": "view",
      "type": "function"
    },
    {
      "inputs": [
        {
          "internalType": "string",
          "name": "chain",
          "type": "string"
        }
      ],
      "name": "trustedAddressHash",
      "outputs": [
        {
          "internalType": "bytes32",
          "name": "trustedAddressHash_",
          "type": "bytes32"
        }
      ],
      "stateMutability": "view",
      "type": "function"
    },
    {
      "inputs": [
        {
          "internalType": "address",
          "name": "newImplementation",
          "type": "address"
        },
        {
          "internalType": "bytes32",
          "name": "newImplementationCodeHash",
          "type": "bytes32"
        },
        {
          "internalType": "bytes",
          "name": "params",
          "type": "bytes"
        }
      ],
      "name": "upgrade",
      "outputs": [],
      "stateMutability": "nonpayable",
      "type": "function"
    },
    {
      "inputs": [
        {
          "internalType": "bytes32",
          "name": "tokenId",
          "type": "bytes32"
        }
      ],
      "name": "validTokenAddress",
      "outputs": [
        {
          "internalType": "address",
          "name": "tokenAddress",
          "type": "address"
        }
      ],
      "stateMutability": "view",
      "type": "function"
    },
    {
      "inputs": [
        {
          "internalType": "bytes32",
          "name": "tokenId",
          "type": "bytes32"
        }
      ],
      "name": "validTokenManagerAddress",
      "outputs": [
        {
          "internalType": "address",
          "name": "tokenManagerAddress_",
          "type": "address"
        }
      ],
      "stateMutability": "view",
      "type": "function"
    }
  ],
  "bytecode": "0x6101a06040523480156200001257600080fd5b506040516200607738038062006077833981016040819052620000359162000233565b600162000042816200015c565b50306080526001600160a01b03851615806200006557506001600160a01b038816155b806200007857506001600160a01b038716155b806200008b57506001600160a01b038616155b806200009e57506001600160a01b038416155b80620000b157506001600160a01b038216155b80620000c457506001600160a01b038116155b15620000e35760405163d92e233d60e01b815260040160405180910390fd5b6001600160a01b0380871660a05285811660c0528881166101405287811661012052841660e05282516000036200012d57604051630470832760e11b815260040160405180910390fd5b8251602090930192909220610100526001600160a01b03908116610160521661018052506200038b9350505050565b6001600160a01b0381166200018457604051633649397d60e21b815260040160405180910390fd5b6040516001600160a01b038216907f04dba622d284ed0014ee4b9a6a68386be1a4c08a4913ae272de89199cc68616390600090a27f02016836a56b71f0d02689e69e326f4f4c1b9057164ef592671cf0d37c8040c05560007f9855384122b55936fbfb8ca5120e63c6537a1ac40caf6ae33502b3c5da8c87d155565b80516001600160a01b03811681146200021857600080fd5b919050565b634e487b7160e01b600052604160045260246000fd5b600080600080600080600080610100898b0312156200025157600080fd5b6200025c8962000200565b975060206200026d818b0162000200565b97506200027d60408b0162000200565b96506200028d60608b0162000200565b95506200029d60808b0162000200565b60a08b01519095506001600160401b0380821115620002bb57600080fd5b818c0191508c601f830112620002d057600080fd5b815181811115620002e557620002e56200021d565b604051601f8201601f19908116603f011681019083821181831017156200031057620003106200021d565b816040528281528f868487010111156200032957600080fd5b600093505b828410156200034d57848401860151818501870152928501926200032e565b60008684830101528098505050505050506200036c60c08a0162000200565b91506200037c60e08a0162000200565b90509295985092959890939650565b60805160a05160c05160e0516101005161012051610140516101605161018051615bef62000488600039600081816103ff015281816123e50152818161265101528181612b130152613d6101526000818161049401526107200152600081816106580152612a1901526000818161055b015261306b0152600081816107b10152612d2c01526000818161097a015281816115450152611dee015260008181610624015281816137c50152818161387101528181613a090152613ab101526000818161036c01528181610ea20152818161111501528181611f9a0152818161216c015281816139010152613b09015260006116550152615bef6000f3fe6080604052600436106103555760003560e01c8063864a0dcf116101bb578063c8bb7067116100f7578063e30c397811610095578063e82e71f81161006f578063e82e71f814610a89578063f2fde38b14610aa9578063f8c8a82614610ac9578063ffd5982a14610ae957600080fd5b8063e30c397814610a22578063e4a974cc14610a56578063e7e3ffc814610a6957600080fd5b8063da081c73116100d1578063da081c73146109bc578063da4886df146109cf578063dc88dfd1146109ef578063e1d40c7714610a0f57600080fd5b8063c8bb706714610948578063ca58b64414610968578063d8dab96b1461099c57600080fd5b80639f409d7711610164578063ac9650d81161013e578063ac9650d8146108c8578063c38bb537146108e8578063c506bff414610908578063c7e6a3cc1461092857600080fd5b80639f409d7714610868578063a3499c7314610888578063a5269ef1146108a857600080fd5b806395a8c58d1161019557806395a8c58d1461081557806398d78c82146108355780639ded06df1461084857600080fd5b8063864a0dcf1461079f578063868a166d146107d35780638da5cb5b146107f357600080fd5b80635a6fd76e116102955780636f3eef621161023357806379ba50971161020d57806379ba5097146106ed5780637e151fa6146107025780638291286c1461074257806383d296961461077f57600080fd5b80636f3eef621461069a57806370756cde146106ba578063710bf322146106cd57600080fd5b8063656576361161026f57806365657636146105ff5780636a22d8cc146106125780636ac0d112146106465780636d70f7ae1461067a57600080fd5b80635a6fd76e1461057d5780635c60da1b1461059d5780635c975abb146105d157600080fd5b80632a709b141161030257806349160658116102dc57806349160658146104f65780634a6a42d8146105165780634b4578ba146105365780634f9ae6081461054957600080fd5b80632a709b1414610482578063465a09e0146104b6578063477aedc7146104d657600080fd5b80631b3d6e87116103335780631b3d6e87146103ed5780631c93b03a146104215780631f26d7301461044357600080fd5b8063116191b61461035a5780631a083d39146103ab5780631a98b2e0146103cb575b600080fd5b34801561036657600080fd5b5061038e7f000000000000000000000000000000000000000000000000000000000000000081565b6040516001600160a01b0390911681526020015b60405180910390f35b3480156103b757600080fd5b5061038e6103c6366004613fc2565b610b09565b3480156103d757600080fd5b506103eb6103e636600461401d565b610b80565b005b3480156103f957600080fd5b5061038e7f000000000000000000000000000000000000000000000000000000000000000081565b34801561042d57600080fd5b50610436610bfd565b6040516103a29190614147565b34801561044f57600080fd5b5061046361045e36600461415a565b610c2d565b604080516001600160a01b0390931683526020830191909152016103a2565b34801561048e57600080fd5b5061038e7f000000000000000000000000000000000000000000000000000000000000000081565b3480156104c257600080fd5b506103eb6104d136600461426b565b610cb8565b3480156104e257600080fd5b506104366104f136600461439c565b610dfd565b34801561050257600080fd5b506103eb6105113660046143d9565b610e16565b34801561052257600080fd5b506103eb610531366004614492565b610f5f565b6103eb6105443660046144af565b610fa5565b34801561055557600080fd5b5061038e7f000000000000000000000000000000000000000000000000000000000000000081565b34801561058957600080fd5b5061038e610598366004613fc2565b61105f565b3480156105a957600080fd5b507f360894a13ba1a3210667c828492db98dca3e2076cc3735a920a3ca505d382bbc5461038e565b3480156105dd57600080fd5b506000805160206159f8833981519152545b60405190151581526020016103a2565b6103eb61060d3660046143d9565b61109f565b34801561061e57600080fd5b5061038e7f000000000000000000000000000000000000000000000000000000000000000081565b34801561065257600080fd5b5061038e7f000000000000000000000000000000000000000000000000000000000000000081565b34801561068657600080fd5b506105ef610695366004614492565b611237565b3480156106a657600080fd5b506103eb6106b5366004614492565b611244565b6103eb6106c836600461455f565b611286565b3480156106d957600080fd5b506103eb6106e8366004614492565b6112f8565b3480156106f957600080fd5b506103eb6113b5565b34801561070e57600080fd5b5061038e61071d366004613fc2565b507f000000000000000000000000000000000000000000000000000000000000000090565b34801561074e57600080fd5b507ff407da03daa7b4243ffb261daad9b01d221ea90ab941948cd48101563654ea865b6040519081526020016103a2565b34801561078b57600080fd5b5061046361079a366004614619565b611416565b3480156107ab57600080fd5b506107717f000000000000000000000000000000000000000000000000000000000000000081565b3480156107df57600080fd5b5061038e6107ee3660046146b3565b611491565b3480156107ff57600080fd5b50600080516020615a188339815191525461038e565b34801561082157600080fd5b506105ef610830366004614779565b6114b5565b6107716108433660046147bd565b6114d0565b34801561085457600080fd5b506103eb610863366004614853565b611652565b34801561087457600080fd5b506103eb610883366004614895565b6116a5565b34801561089457600080fd5b506103eb6108a33660046148f9565b6116ed565b3480156108b457600080fd5b506107716108c3366004614949565b611982565b6108db6108d6366004614975565b6119e9565b6040516103a291906149ab565b3480156108f457600080fd5b506103eb610903366004614a1b565b611b29565b34801561091457600080fd5b506105ef610923366004614a38565b611b7d565b34801561093457600080fd5b5061038e610943366004614a98565b611be3565b34801561095457600080fd5b50610771610963366004613fc2565b611c01565b34801561097457600080fd5b5061038e7f000000000000000000000000000000000000000000000000000000000000000081565b3480156109a857600080fd5b506107716109b7366004613fc2565b611c71565b6103eb6109ca3660046146b3565b611cbd565b3480156109db57600080fd5b506103eb6109ea366004614492565b611d5a565b3480156109fb57600080fd5b506103eb610a0a36600461439c565b611d66565b610771610a1d366004614b1a565b611dad565b348015610a2e57600080fd5b507f9855384122b55936fbfb8ca5120e63c6537a1ac40caf6ae33502b3c5da8c87d15461038e565b6103eb610a6436600461401d565b611e8e565b348015610a7557600080fd5b50610771610a84366004613fc2565b611eaa565b348015610a9557600080fd5b5061038e610aa4366004613fc2565b611ef6565b348015610ab557600080fd5b506103eb610ac4366004614492565b611f0c565b348015610ad557600080fd5b5061038e610ae4366004613fc2565b611f4a565b348015610af557600080fd5b50610771610b0436600461439c565b611f55565b600080610b158361105f565b9050806001600160a01b0316639d76ea586040518163ffffffff1660e01b8152600401602060405180830381865afa158015610b55573d6000803e3d6000fd5b505050506040513d601f19601f82011682018060405250810190610b799190614bf0565b9392505050565b88888888610b9084848484611b7d565b610bad5760405163157e5fbf60e21b815260040160405180910390fd5b6000805160206159f88339815191525415610bdb576040516334c2d01160e11b815260040160405180910390fd5b610bed8e8e8e8e8e8e8e8e8e8e611f69565b5050505050505050505050505050565b6060610c287f0e2c162a1f4b5cff9fdbd6b34678a9bcb9898a0b9fbca695b112d61688d8b2ac6120ad565b905090565b6000808a8a8a8a610c4084848484611b7d565b610c5d5760405163157e5fbf60e21b815260040160405180910390fd5b6000805160206159f88339815191525415610c8b576040516334c2d01160e11b815260040160405180910390fd5b610c988b8b8b8b8b612140565b610ca28b8b612238565b9550955050505050995099975050505050505050565b6001610cd3610cc63361228d565b600160ff84161b16151590565b610d005760405163bb6c163960e01b815233600482015260ff821660248201526044015b60405180910390fd5b83828114610d3a576040517fff633a3800000000000000000000000000000000000000000000000000000000815260040160405180910390fd5b60005b81811015610df4576000610d68888884818110610d5c57610d5c614c23565b9050602002013561105f565b9050806001600160a01b031663a56dbe63878785818110610d8b57610d8b614c23565b905060200201356040518263ffffffff1660e01b8152600401610db091815260200190565b600060405180830381600087803b158015610dca57600080fd5b505af1158015610dde573d6000803e3d6000fd5b505050505080610ded90614c39565b9050610d3d565b50505050505050565b6060610e10610e0b83612299565b6120ad565b92915050565b85858585610e2684848484611b7d565b610e435760405163157e5fbf60e21b815260040160405180910390fd5b6000805160206159f88339815191525415610e71576040516334c2d01160e11b815260040160405180910390fd5b60008686604051610e83929190614c60565b604051908190038120635f6970c360e01b825291506001600160a01b037f00000000000000000000000000000000000000000000000000000000000000001690635f6970c390610ee1908f908f908f908f908f908990600401614c99565b6020604051808303816000875af1158015610f00573d6000803e3d6000fd5b505050506040513d601f19601f82011682018060405250810190610f249190614cda565b610f4157604051631403112d60e21b815260040160405180910390fd5b610f518c8c8c8c8c8c8c886122eb565b505050505050505050505050565b6001610f6d610cc63361228d565b610f955760405163bb6c163960e01b815233600482015260ff82166024820152604401610cf7565b610fa13383600161236b565b5050565b6000805160206159f88339815191525415610fd3576040516334c2d01160e11b815260040160405180910390fd5b8151600003610ff5576040516399d8fec960e01b815260040160405180910390fd5b60606110048933866000612381565b809250819550505061105489338a8a8a8a8080601f01602080910402602001604051908101604052809392919081815260200183838082843760009201829052508d935091508b9050898b612497565b505050505050505050565b600061106a82611f4a565b9050806001600160a01b03163b60000361109a57604051630b7616bf60e21b815260048101839052602401610cf7565b919050565b6000805160206159f883398151915254156110cd576040516334c2d01160e11b815260040160405180910390fd5b60006110db82840184613fc2565b905080156110ff5760405163e94617f560e01b815260048101829052602401610cf7565b604051630d26ff2160e41b8152600481018990527f00000000000000000000000000000000000000000000000000000000000000006001600160a01b03169063d26ff21090602401602060405180830381865afa158015611164573d6000803e3d6000fd5b505050506040513d601f19601f820116820180604052508101906111889190614cda565b156111a657604051630dc1019760e01b815260040160405180910390fd5b60405133906000906111bb9086908690614c60565b60405180910390209050816001600160a01b03168a7f6e18757e81c44a367109cbaa499add16f2ae7168aab9715c3cdc36b0f7ccce928b8b8b8b87604051611207959493929190614cf7565b60405180910390a361121e8a8a8a8a8a8688612580565b61122b8a8a8a88886125c7565b50505050505050505050565b6000610e108260016114b5565b6001611252610cc63361228d565b61127a5760405163bb6c163960e01b815233600482015260ff82166024820152604401610cf7565b610fa133836001612836565b6000805160206159f883398151915254156112b4576040516334c2d01160e11b815260040160405180910390fd5b60606112c38989866001612381565b90945090506000806112d58585612847565b915091506112eb8b8b8b8b8b8b88888b34612497565b5050505050505050505050565b3361130f600080516020615a188339815191525490565b6001600160a01b031614611336576040516330cd747160e01b815260040160405180910390fd5b6001600160a01b03811661135d57604051633649397d60e21b815260040160405180910390fd5b6040516001600160a01b038216907fd9be0e8e07417e00f2521db636cb53e316fd288f5051f16d2aa2bf0c3938a87690600090a27f9855384122b55936fbfb8ca5120e63c6537a1ac40caf6ae33502b3c5da8c87d155565b60006113df7f9855384122b55936fbfb8ca5120e63c6537a1ac40caf6ae33502b3c5da8c87d15490565b90506001600160a01b038116331461140a576040516349e27cff60e01b815260040160405180910390fd5b61141381612919565b50565b6000808787878761142984848484611b7d565b6114465760405163157e5fbf60e21b815260040160405180910390fd5b6000805160206159f88339815191525415611474576040516334c2d01160e11b815260040160405180910390fd5b61147e8888612238565b9550955050505050965096945050505050565b6000806114a58b8b8b8b8b8b8b8b8b6129aa565b549b9a5050505050505050505050565b6000610b796114c38461228d565b600160ff85161b16151590565b60006114e86000805160206159f88339815191525490565b15611506576040516334c2d01160e11b815260040160405180910390fd5b600085600581111561151a5761151a614c0d565b0361153a5784604051630a7dda8360e01b8152600401610cf79190614d53565b336001600160a01b037f000000000000000000000000000000000000000000000000000000000000000016810361156f575060005b611579818a611982565b915088816001600160a01b0316837f04ddbfaa222e81ab9447c070310e87608bf6a4c5d42be5c2fdf0f370b186af7960405160405180910390a46000879003611602576115fd828787878080601f016020809104026020016040519081016040528093929190818152602001838380828437600092019190915250612a1492505050565b611646565b611646828989868a8a8a8080601f016020809104026020016040519081016040528093929190818152602001838380828437600092019190915250612c4592505050565b50979650505050505050565b307f00000000000000000000000000000000000000000000000000000000000000006001600160a01b03160361169b57604051635f886e9d60e11b815260040160405180910390fd5b610fa18282612cd6565b336116bc600080516020615a188339815191525490565b6001600160a01b0316146116e3576040516330cd747160e01b815260040160405180910390fd5b610fa18282612e19565b33611704600080516020615a188339815191525490565b6001600160a01b03161461172b576040516330cd747160e01b815260040160405180910390fd5b7f360894a13ba1a3210667c828492db98dca3e2076cc3735a920a3ca505d382bbc546001600160a01b0316638291286c6040518163ffffffff1660e01b8152600401602060405180830381865afa15801561178a573d6000803e3d6000fd5b505050506040513d601f19601f820116820180604052508101906117ae9190614d61565b846001600160a01b0316638291286c6040518163ffffffff1660e01b8152600401602060405180830381865afa1580156117ec573d6000803e3d6000fd5b505050506040513d601f19601f820116820180604052508101906118109190614d61565b1461182e5760405163340aafcd60e11b815260040160405180910390fd5b836001600160a01b03163f8314611858576040516323e13ec960e21b815260040160405180910390fd5b6040516001600160a01b038516907fbc7cd75a20ee27fd9adebab32041f755214dbc6bffa90cc0225b39da2e5c2d3b90600090a2801561195b576000846001600160a01b0316639ded06df60e01b84846040516024016118b9929190614d7a565b60408051601f198184030181529181526020820180516001600160e01b03166001600160e01b03199094169390931790925290516118f79190614d8e565b600060405180830381855af49150503d8060008114611932576040519150601f19603f3d011682016040523d82523d6000602084013e611937565b606091505b5050905080611959576040516397905dfb60e01b815260040160405180910390fd5b505b5050507f360894a13ba1a3210667c828492db98dca3e2076cc3735a920a3ca505d382bbc55565b604080517f980c3be34c7ee75cc250c76223092614e21653cdf2faece10ac24fcef821df1060208201526001600160a01b03841691810191909152606081018290526000906080015b60405160208183030381529060405280519060200120905092915050565b60608167ffffffffffffffff811115611a0457611a046142d7565b604051908082528060200260200182016040528015611a3757816020015b6060815260200190600190039081611a225790505b5090506000606060005b84811015611b205730868683818110611a5c57611a5c614c23565b9050602002810190611a6e9190614daa565b604051611a7c929190614c60565b600060405180830381855af49150503d8060008114611ab7576040519150601f19603f3d011682016040523d82523d6000602084013e611abc565b606091505b50909350915082611af1578151600003611ae9576040516309ad446560e31b815260040160405180910390fd5b815182602001fd5b81848281518110611b0457611b04614c23565b602002602001018190525080611b1990614c39565b9050611a41565b50505092915050565b33611b40600080516020615a188339815191525490565b6001600160a01b031614611b67576040516330cd747160e01b815260040160405180910390fd5b8015611b7557611413612ec8565b611413612f0c565b6000808383604051611b90929190614c60565b60405180910390209050611bd986868080601f016020809104026020016040519081016040528093929190818152602001838380828437600092019190915250611f5592505050565b1495945050505050565b600080611bf4888888888888612f50565b5498975050505050505050565b600080611c0d8361105f565b9050806001600160a01b0316637dbab19b6040518163ffffffff1660e01b8152600401602060405180830381865afa158015611c4d573d6000803e3d6000fd5b505050506040513d601f19601f82011682018060405250810190610b799190614d61565b600080611c7d8361105f565b9050806001600160a01b0316632f3c78886040518163ffffffff1660e01b8152600401602060405180830381865afa158015611c4d573d6000803e3d6000fd5b6000805160206159f88339815191525415611ceb576040516334c2d01160e11b815260040160405180910390fd5b6060611cfa8a33876000612381565b9095509050600080611d0c8686612847565b91509150610f518c338d8d8d8d8080601f0160208091040260200160405190810160405280939291908181526020018383808284376000920191909152508f92508a91508990508b8d612497565b61141381336001612fb1565b33611d7d600080516020615a188339815191525490565b6001600160a01b031614611da4576040516330cd747160e01b815260040160405180910390fd5b61141381612fc2565b6000611dc56000805160206159f88339815191525490565b15611de3576040516334c2d01160e11b815260040160405180910390fd5b336001600160a01b037f0000000000000000000000000000000000000000000000000000000000000000168103611e18575060005b611e22818b611982565b91506000889003611e71576000611e3c83868a8a8a613041565b9050611e6b8360008784604051602001611e57929190614df1565b604051602081830303815290604052612a14565b50611e81565b611e8182888888888e8e8a6131b5565b5098975050505050505050565b611e9b8585858585612140565b61122b8a8a8a8a8a8a8a61109f565b600080611eb68361105f565b9050806001600160a01b0316638b38b35d6040518163ffffffff1660e01b8152600401602060405180830381865afa158015611c4d573d6000803e3d6000fd5b6000611f018261323e565b9150610e1082613279565b33611f23600080516020615a188339815191525490565b6001600160a01b03161461140a576040516330cd747160e01b815260040160405180910390fd5b6000610e1082613279565b600080611f618361335d565b549392505050565b60008585604051611f7b929190614c60565b604051908190038120631876eed960e01b825291506001600160a01b037f00000000000000000000000000000000000000000000000000000000000000001690631876eed990611fdf908e908e908e908e908e9089908d908d908d90600401614e1c565b6020604051808303816000875af1158015611ffe573d6000803e3d6000fd5b505050506040513d601f19601f820116820180604052508101906120229190614cda565b61203f57604051631403112d60e21b815260040160405180910390fd5b600061204d86880188613fc2565b90508015612071576040516324af919760e11b815260048101829052602401610cf7565b61207e8787878787612140565b600061208e8d8d8d8d8d88613392565b905061209e8d828e8e8c8c613408565b50505050505050505050505050565b60608180546120bb90614e7b565b80601f01602080910402602001604051908101604052809291908181526020018280546120e790614e7b565b80156121345780601f1061210957610100808354040283529160200191612134565b820191906000526020600020905b81548152906001019060200180831161211757829003601f168201915b50505050509050919050565b60008061214f86880188614eb5565b6040516349ad89fb60e11b81529396509450506001600160a01b037f000000000000000000000000000000000000000000000000000000000000000016925063935b13f6916121a5915088908890600401614d7a565b602060405180830381865afa1580156121c2573d6000803e3d6000fd5b505050506040513d601f19601f820116820180604052508101906121e69190614bf0565b6001600160a01b03166121f883610b09565b6001600160a01b031614158061220e5750808314155b15610df4578187878787876040516303c3688160e31b8152600401610cf796959493929190614c99565b60008080808061224a86880188614ef0565b9450505092509250600083146122765760405163e94617f560e01b815260048101849052602401610cf7565b61227f82610b09565b9450925050505b9250929050565b600080611f61836135b0565b60007fa5b4aa1bcb538076d57d083e3004c6907e2eba42d84c21922d441967a02b472f826040516020016122ce929190614f6f565b604051602081830303815290604052805190602001209050919050565b60006122f983850185613fc2565b9050806123265760006123108a8a8a8a8a88613392565b90506123208a828b8b8989613408565b50611054565b6002810361233d576123388484613600565b611054565b6001810361234f57612338848461365f565b6040516324af919760e11b815260048101829052602401610cf7565b61237c8383600160ff85161b6136a6565b505050565b604080516024810186905282151560448201526001600160a01b03858116606483015260848083018690528351808403909101815260a490920183526020820180516001600160e01b031663ea52548360e01b1790529151600092606092849283927f0000000000000000000000000000000000000000000000000000000000000000169161240f91614d8e565b600060405180830381855af49150503d806000811461244a576040519150601f19603f3d011682016040523d82523d6000602084013e61244f565b606091505b5091509150816124745780604051631a59c9bd60e01b8152600401610cf79190614147565b808060200190518101906124889190614f88565b90999098509650505050505050565b846000036124b857604051631f2a200560e01b815260040160405180910390fd5b8251156124cb57825160208401206124ce565b60005b896001600160a01b03168b7fcd05f5b9dc4bb03babf40f5da98f5f46819846207d916f89b67d36fd1f7fd74f8b8b8b8b60405161250e949392919061500b565b60405180910390a46000808b61252c8c6001600160a01b03166136fc565b89898860405160200161254496959493929190615043565b60405160208183030381529060405290506000835111156125735761256e898983868a8a8861372a565b6112eb565b6112eb898983888661396e565b6000612590888888888888612f50565b80549091506001600160a01b038116156125bd5760405163725f13f160e01b815260040160405180910390fd5b5055505050505050565b6000808080806125d98688018861509b565b955095509550955095505060006125ef84613b72565b60408051602481018990523360448201526001600160a01b03838116606483015260848083018890528351808403909101815260a490920183526020820180516001600160e01b031663041eebc160e31b1790529151929350600092839283927f00000000000000000000000000000000000000000000000000000000000000009091169161267e9190614d8e565b600060405180830381855af49150503d80600081146126b9576040519150601f19603f3d011682016040523d82523d6000602084013e6126be565b606091505b5091509150816126e35780604051633a5cf90560e01b8152600401610cf79190614147565b808060200190518101906126f7919061513f565b80945081975050505050816001600160a01b0316878d7fbdb65cfd017af0876344138f62bc895163b5fd120cbe6e666ed306afd658de4b8e8e8b8a8a51600014612747578a5160208c012061274a565b60005b60405161275b95949392919061516f565b60405180910390a4825115610f51576000826001600160a01b03166377c790258e8e8e8b898e898d6040518963ffffffff1660e01b81526004016127a69897969594939291906151aa565b6020604051808303816000875af11580156127c5573d6000803e3d6000fd5b505050506040513d601f19601f820116820180604052508101906127e99190614d61565b90507f692b2deb10f974787eb65450ba9a90dc0bb28141a633fa3fb556d5292fba42e1811461209e5760405163c646a62360e01b81526001600160a01b0384166004820152602401610cf7565b61237c8383600160ff85161b613ba0565b60006060600483101561285d5760009150612286565b600061286c6004828688615214565b6128759161523e565b60e01c905060018111156128a45760405163b47a9b4b60e01b815263ffffffff82166004820152602401610cf7565b8063ffffffff1660018111156128bc576128bc614c0d565b925060048490036128cd5750612286565b6128da8460048188615214565b8080601f016020809104026020016040519081016040528093929190818152602001838380828437600092019190915250929450505050509250929050565b6001600160a01b03811661294057604051633649397d60e21b815260040160405180910390fd5b6040516001600160a01b038216907f04dba622d284ed0014ee4b9a6a68386be1a4c08a4913ae272de89199cc68616390600090a2600080516020615a188339815191525560007f9855384122b55936fbfb8ca5120e63c6537a1ac40caf6ae33502b3c5da8c87d155565b60007febf4535caee8019297b7be3ed867db0d00b69fedcdda98c5e2c41ea6e41a98d58a8a8a8a8a8a8a8a8a6040516020016129ef9a9998979695949392919061526e565b6040516020818303038152906040528051906020012090509998505050505050505050565b6000807f00000000000000000000000000000000000000000000000000000000000000006001600160a01b0316636519d04b60e01b868686604051602401612a5e939291906152d4565b60408051601f198184030181529181526020820180516001600160e01b03166001600160e01b0319909416939093179092529051612a9c9190614d8e565b600060405180830381855af49150503d8060008114612ad7576040519150601f19603f3d011682016040523d82523d6000602084013e612adc565b606091505b509150915081612b015780604051637cf77c1560e11b8152600401610cf79190614147565b60208101516040516001600160a01b037f0000000000000000000000000000000000000000000000000000000000000000169063dbd15f2f60e01b90612b4d9088908590602401615303565b60408051601f198184030181529181526020820180516001600160e01b03166001600160e01b0319909416939093179092529051612b8b9190614d8e565b600060405180830381855af49150503d8060008114612bc6576040519150601f19603f3d011682016040523d82523d6000602084013e612bcb565b606091505b50909350915082612bf15781604051631b559efb60e21b8152600401610cf79190614147565b846005811115612c0357612c03614c0d565b867f5284c2478b9c1a55e973429331078be39b5fb3eeb9d87d10b34d65a4c89ee4eb8387604051612c35929190615327565b60405180910390a3505050505050565b612c4e8661105f565b50816005811115612c6157612c61614c0d565b867fc92a73c79b84dd58e39d4e09fbf47f3f8bd145222bfff3d803eec161bed1c194878785604051612c9593929190615349565b60405180910390a360006002878484604051602001612cb7949392919061536f565b6040516020818303038152906040529050610df486868360008861396e565b6000808080612ce78587018761543a565b8151939750919550935091506001600160a01b038516612d1a5760405163d92e233d60e01b815260040160405180910390fd5b83511580612d4e5750835160208501207f000000000000000000000000000000000000000000000000000000000000000014155b15612d6c57604051630470832760e11b815260040160405180910390fd5b81518114612da6576040517fff633a3800000000000000000000000000000000000000000000000000000000815260040160405180910390fd5b612daf85613c38565b612db884613c43565b60005b81811015612e0f57612dff848281518110612dd857612dd8614c23565b6020026020010151848381518110612df257612df2614c23565b6020026020010151612e19565b612e0881614c39565b9050612dbb565b5050505050505050565b8151600003612e3b5760405163deba168960e01b815260040160405180910390fd5b8051600003612e5d5760405163deba168960e01b815260040160405180910390fd5b612e6f612e6983612299565b82613c69565b6000612e7a8361335d565b82516020840120808255604051919250907fdb6b260ea45f7fe513e1d3b8c21017a29e3a41610e95aefb8862b81c69aec61c90612eba90869086906154d5565b60405180910390a150505050565b612edf60016000805160206159f883398151915255565b60405133907f62e78cea01bee320cd4e420270b5ea74000d11b0c9f74754ebdbfc544b05a25890600090a2565b612f2360006000805160206159f883398151915255565b60405133907f5db9ee0a495bf2e6ff9c91a7834c1ba4fdd244a5e8aa4e537bd38aeae4b073aa90600090a2565b60007f2a41fec9a0df4e0996b975f71622c7164b0f652ea69d9dbcd6b24e81b20ab5e5878787878787604051602001612f8f97969594939291906154fa565b6040516020818303038152906040528051906020012090509695505050505050565b61237c8383600160ff85161b613c74565b8051600003612fe45760405163deba168960e01b815260040160405180910390fd5b612ff5612ff082612299565b613cce565b60006130008261335d565b9050600081557ff9400637a329865492b8d0d4dba4eafc7e8d5d0fae5e27b56766816d2ae1b2ca826040516130359190614147565b60405180910390a15050565b60008061304d8761323e565b9050600086516000146130665761306387613b72565b90505b6000807f00000000000000000000000000000000000000000000000000000000000000006001600160a01b031663f575f35b60e01b858c868c8c8c6040516024016130b696959493929190615542565b60408051601f198184030181529181526020820180516001600160e01b03166001600160e01b03199094169390931790925290516130f49190614d8e565b600060405180830381855af49150503d806000811461312f576040519150601f19603f3d011682016040523d82523d6000602084013e613134565b606091505b509150915081613159578060405163c226af8b60e01b8152600401610cf79190614147565b60208101519450826001600160a01b03168a7ff0d7beb2b03d35e597f432391dc2a6f6eb1a621be6cb5b325f55a49090085239878b8b8b6040516131a09493929190615599565b60405180910390a35050505095945050505050565b6131be8861105f565b50877fe470f4bdd33c8676127d3c20ff725d8dc1605609001389ce3a59c28b54b7992f8888888888886040516131f9969594939291906155e2565b60405180910390a260006001898989898960405160200161321f96959493929190615639565b604051602081830303815290604052905061105484848360008661396e565b604080517f610507e221586f499adb972fbdbe7f0619bdae0112c78ebaa562448d0ca7071f60208201529081018290526000906060016122ce565b6000803083604051806101c001604052806101828152602001615a38610182913980516020918201206040516132fc949392017fff00000000000000000000000000000000000000000000000000000000000000815260609390931b6bffffffffffffffffffffffff191660018401526015830191909152603582015260550190565b60408051601f1981840301815282825280516020918201206135a560f21b8285015260601b6bffffffffffffffffffffffff19166022840152600160f81b603684015281516017818503018152603790930190915281519101209392505050565b60007f5f58fea7d48d37d5d1cc2546dfcc3d3cbfe8d758d5ca19c44087f52e15a10505826040516020016122ce929190614f6f565b60006133a2878787878787613cd9565b90506001600160a01b038116156133fe57806001600160a01b0316877f8fe61b2d4701a29265508750790e322b2c214399abdf98472158b8908b660d4188888888886040516133f5959493929190614cf7565b60405180910390a35b9695505050505050565b600060608180828061341c8789018961509b565b939a509198509095509093509150613435905081613b72565b9350506001600160a01b038a161561345e57613452858b84613d06565b505050505050506135a8565b600061346b868585613d06565b8092508194505050836001600160a01b0316868d7fbdb65cfd017af0876344138f62bc895163b5fd120cbe6e666ed306afd658de4b8d8d8a8989516000146134b957895160208b01206134bc565b60005b6040516134cd95949392919061516f565b60405180910390a4815115610f51576000846001600160a01b031663292415028e8d8d8a888d898c6040518963ffffffff1660e01b81526004016135189897969594939291906151aa565b6020604051808303816000875af1158015613537573d6000803e3d6000fd5b505050506040513d601f19601f8201168201806040525081019061355b9190614d61565b90507fe84001f3dedacf7f9ddc370e9f09c26b37473e9e959ffdc4925f6fe33c9877e4811461209e57604051631ef6f3b360e01b81526001600160a01b0386166004820152602401610cf7565b505050505050565b60007fde9bdca322e1a848f72215bc15cf2c87fe7749145789a9ee281a2a6290af26ab826040516020016122ce92919091825260601b6bffffffffffffffffffffffff1916602082015260340190565b6000808061361084860186615687565b919550935091506000905082600581111561362d5761362d614c0d565b0361364d5781604051630a7dda8360e01b8152600401610cf79190614d53565b613658838383612a14565b5050505050565b600080808080613671868801886156dc565b9550955095509550955050600061368b8683878787613041565b9050612e0f8660008484604051602001611e57929190614df1565b6136b96136b28461228d565b8216821490565b6136e857604051631fe9beed60e21b81526001600160a01b038416600482015260248101829052604401610cf7565b6136f28382613e12565b61237c8282613e74565b6040805160148082528183019092526060916020820181803683375050506014808201939093529182525090565b600061376b88888080601f016020809104026020016040519081016040528093929190818152602001838380828437600092019190915250610dfd92505050565b9050805160000361378f57604051631f23114d60e31b815260040160405180910390fd5b81156138ea5760008360018111156137a9576137a9614c0d565b0361384157604051636316100160e11b81526001600160a01b037f0000000000000000000000000000000000000000000000000000000000000000169063c62c200290849061380a9030908d908d9088908e908e908e90329060040161576d565b6000604051808303818588803b15801561382357600080fd5b505af1158015613837573d6000803e3d6000fd5b50505050506138ea565b600183600181111561385557613855614c0d565b036138b6576040516302e9b74760e41b81526001600160a01b037f00000000000000000000000000000000000000000000000000000000000000001690632e9b747090849061380a9030908d908d9088908e908e908e90329060040161576d565b8260018111156138c8576138c8614c0d565b60405163b47a9b4b60e01b815263ffffffff9091166004820152602401610cf7565b604051632d505c2160e21b81526001600160a01b037f0000000000000000000000000000000000000000000000000000000000000000169063b541708490613940908b908b9086908c908c908c906004016157e9565b600060405180830381600087803b15801561395a57600080fd5b505af1158015610f51573d6000803e3d6000fd5b60006139af86868080601f016020809104026020016040519081016040528093929190818152602001838380828437600092019190915250610dfd92505050565b905080516000036139d357604051631f23114d60e31b815260040160405180910390fd5b8115613af25760008360018111156139ed576139ed614c0d565b03613a8157604051630c93e3bb60e01b81526001600160a01b037f00000000000000000000000000000000000000000000000000000000000000001690630c93e3bb908490613a4a9030908b908b9088908c90329060040161584b565b6000604051808303818588803b158015613a6357600080fd5b505af1158015613a77573d6000803e3d6000fd5b5050505050613af2565b6001836001811115613a9557613a95614c0d565b036138b657604051631ec3da4360e31b81526001600160a01b037f0000000000000000000000000000000000000000000000000000000000000000169063f61ed218908490613a4a9030908b908b9088908c90329060040161584b565b604051631c92115f60e01b81526001600160a01b037f00000000000000000000000000000000000000000000000000000000000000001690631c92115f90613b44908990899086908a906004016158ac565b600060405180830381600087803b158015613b5e57600080fd5b505af115801561122b573d6000803e3d6000fd5b60008151601414613b98578160405163d08dbec560e01b8152600401610cf79190614147565b506014015190565b613bac6136b28461228d565b613bdb57604051631fe9beed60e21b81526001600160a01b038416600482015260248101829052604401610cf7565b613be6838383613ec8565b816001600160a01b0316836001600160a01b03167ff7158d1591c2cf17c0e6b9459d86365c47fe0969c79f40ef49e0c437d8f3991483604051613c2b91815260200190565b60405180910390a3505050565b611413816001613edd565b6114137f0e2c162a1f4b5cff9fdbd6b34678a9bcb9898a0b9fbca695b112d61688d8b2ac825b8161237c8282615937565b80613c7f8484613eed565b14613cb75760405163018013f960e61b81526001600160a01b0380851660048301528316602482015260448101829052606401610cf7565b613cc383836000613ec8565b61237c8383836136a6565b611413816000613f74565b600080613cea888888888888612f50565b9050805491508115613cfb57600081555b509695505050505050565b60408051602481018590526001600160a01b038481166044830152606480830185905283518084039091018152608490920183526020820180516001600160e01b031663fb1ea8cf60e01b17905291516000928392839283927f00000000000000000000000000000000000000000000000000000000000000001691613d8b91614d8e565b600060405180830381855af49150503d8060008114613dc6576040519150601f19603f3d011682016040523d82523d6000602084013e613dcb565b606091505b509150915081613df05780604051630f94097360e01b8152600401610cf79190614147565b80806020019051810190613e04919061513f565b909890975095505050505050565b60008119613e1f8461228d565b169050613e2c8382613f03565b826001600160a01b03167fccf920c8facee98a9c2a6c6124f2857b87b17e9f3a819bfcc6945196ee77366b83604051613e6791815260200190565b60405180910390a2505050565b600081613e808461228d565b179050613e8d8382613f03565b826001600160a01b03167f34e73c57659d4b6809b53db4feee9b007b892e978114eda420d2991aba15014383604051613e6791815260200190565b6000613ed48484613f16565b91909155505050565b610fa182600160ff84161b613e74565b600080613efa8484613f16565b54949350505050565b6000613f0e836135b0565b919091555050565b60007ff96e07b2f4fbb81c31567d2b261589af429e98f0958d53f7e6ad5d63aea0ab7c83836040516020016119cb93929190928352606091821b6bffffffffffffffffffffffff199081166020850152911b16603482015260480190565b508054613f8090614e7b565b6000825580601f10613f90575050565b601f01602090049060005260206000209081019061141391905b80821115613fbe5760008155600101613faa565b5090565b600060208284031215613fd457600080fd5b5035919050565b60008083601f840112613fed57600080fd5b50813567ffffffffffffffff81111561400557600080fd5b60208301915083602082850101111561228657600080fd5b60008060008060008060008060008060c08b8d03121561403c57600080fd5b8a35995060208b013567ffffffffffffffff8082111561405b57600080fd5b6140678e838f01613fdb565b909b50995060408d013591508082111561408057600080fd5b61408c8e838f01613fdb565b909950975060608d01359150808211156140a557600080fd5b6140b18e838f01613fdb565b909750955060808d01359150808211156140ca57600080fd5b506140d78d828e01613fdb565b9150809450508092505060a08b013590509295989b9194979a5092959850565b60005b838110156141125781810151838201526020016140fa565b50506000910152565b600081518084526141338160208601602086016140f7565b601f01601f19169290920160200192915050565b602081526000610b79602083018461411b565b600080600080600080600080600060a08a8c03121561417857600080fd5b893567ffffffffffffffff8082111561419057600080fd5b61419c8d838e01613fdb565b909b50995060208c01359150808211156141b557600080fd5b6141c18d838e01613fdb565b909950975060408c01359150808211156141da57600080fd5b6141e68d838e01613fdb565b909750955060608c01359150808211156141ff57600080fd5b5061420c8c828d01613fdb565b9a9d999c50979a9699959894979660800135949350505050565b60008083601f84011261423857600080fd5b50813567ffffffffffffffff81111561425057600080fd5b6020830191508360208260051b850101111561228657600080fd5b6000806000806040858703121561428157600080fd5b843567ffffffffffffffff8082111561429957600080fd5b6142a588838901614226565b909650945060208701359150808211156142be57600080fd5b506142cb87828801614226565b95989497509550505050565b634e487b7160e01b600052604160045260246000fd5b604051601f8201601f1916810167ffffffffffffffff81118282101715614316576143166142d7565b604052919050565b600067ffffffffffffffff821115614338576143386142d7565b50601f01601f191660200190565b600082601f83011261435757600080fd5b813561436a6143658261431e565b6142ed565b81815284602083860101111561437f57600080fd5b816020850160208301376000918101602001919091529392505050565b6000602082840312156143ae57600080fd5b813567ffffffffffffffff8111156143c557600080fd5b6143d184828501614346565b949350505050565b60008060008060008060006080888a0312156143f457600080fd5b87359650602088013567ffffffffffffffff8082111561441357600080fd5b61441f8b838c01613fdb565b909850965060408a013591508082111561443857600080fd5b6144448b838c01613fdb565b909650945060608a013591508082111561445d57600080fd5b5061446a8a828b01613fdb565b989b979a50959850939692959293505050565b6001600160a01b038116811461141357600080fd5b6000602082840312156144a457600080fd5b8135610b798161447d565b60008060008060008060008060c0898b0312156144cb57600080fd5b88359750602089013567ffffffffffffffff808211156144ea57600080fd5b6144f68c838d01613fdb565b909950975060408b013591508082111561450f57600080fd5b61451b8c838d01613fdb565b909750955060608b0135945060808b013591508082111561453b57600080fd5b506145488b828c01614346565b92505060a089013590509295985092959890939650565b60008060008060008060008060c0898b03121561457b57600080fd5b88359750602089013561458d8161447d565b9650604089013567ffffffffffffffff808211156145aa57600080fd5b6145b68c838d01613fdb565b909850965060608b01359150808211156145cf57600080fd5b6145db8c838d01614346565b955060808b0135945060a08b01359150808211156145f857600080fd5b506146058b828c01613fdb565b999c989b5096995094979396929594505050565b6000806000806000806060878903121561463257600080fd5b863567ffffffffffffffff8082111561464a57600080fd5b6146568a838b01613fdb565b9098509650602089013591508082111561466f57600080fd5b61467b8a838b01613fdb565b9096509450604089013591508082111561469457600080fd5b506146a189828a01613fdb565b979a9699509497509295939492505050565b600080600080600080600080600060c08a8c0312156146d157600080fd5b8935985060208a013567ffffffffffffffff808211156146f057600080fd5b6146fc8d838e01613fdb565b909a50985060408c013591508082111561471557600080fd5b6147218d838e01613fdb565b909850965060608c0135955060808c013591508082111561474157600080fd5b5061474e8c828d01613fdb565b9a9d999c50979a9699959894979660a00135949350505050565b803560ff8116811461109a57600080fd5b6000806040838503121561478c57600080fd5b82356147978161447d565b91506147a560208401614768565b90509250929050565b80356006811061109a57600080fd5b600080600080600080600060a0888a0312156147d857600080fd5b87359650602088013567ffffffffffffffff808211156147f757600080fd5b6148038b838c01613fdb565b909850965086915061481760408b016147ae565b955060608a013591508082111561482d57600080fd5b5061483a8a828b01613fdb565b989b979a50959894979596608090950135949350505050565b6000806020838503121561486657600080fd5b823567ffffffffffffffff81111561487d57600080fd5b61488985828601613fdb565b90969095509350505050565b600080604083850312156148a857600080fd5b823567ffffffffffffffff808211156148c057600080fd5b6148cc86838701614346565b935060208501359150808211156148e257600080fd5b506148ef85828601614346565b9150509250929050565b6000806000806060858703121561490f57600080fd5b843561491a8161447d565b935060208501359250604085013567ffffffffffffffff81111561493d57600080fd5b6142cb87828801613fdb565b6000806040838503121561495c57600080fd5b82356149678161447d565b946020939093013593505050565b6000806020838503121561498857600080fd5b823567ffffffffffffffff81111561499f57600080fd5b61488985828601614226565b6000602080830181845280855180835260408601915060408160051b870101925083870160005b82811015614a0057603f198886030184526149ee85835161411b565b945092850192908501906001016149d2565b5092979650505050505050565b801515811461141357600080fd5b600060208284031215614a2d57600080fd5b8135610b7981614a0d565b60008060008060408587031215614a4e57600080fd5b843567ffffffffffffffff80821115614a6657600080fd5b614a7288838901613fdb565b90965094506020870135915080821115614a8b57600080fd5b506142cb87828801613fdb565b60008060008060008060808789031215614ab157600080fd5b86359550602087013567ffffffffffffffff80821115614ad057600080fd5b614adc8a838b01613fdb565b90975095506040890135915080821115614af557600080fd5b50614b0289828a01613fdb565b979a9699509497949695606090950135949350505050565b60008060008060008060008060e0898b031215614b3657600080fd5b88359750602089013567ffffffffffffffff80821115614b5557600080fd5b614b618c838d01613fdb565b909950975060408b0135915080821115614b7a57600080fd5b614b868c838d01614346565b965060608b0135915080821115614b9c57600080fd5b614ba88c838d01614346565b9550614bb660808c01614768565b945060a08b0135915080821115614bcc57600080fd5b50614bd98b828c01614346565b92505060c089013590509295985092959890939650565b600060208284031215614c0257600080fd5b8151610b798161447d565b634e487b7160e01b600052602160045260246000fd5b634e487b7160e01b600052603260045260246000fd5b600060018201614c5957634e487b7160e01b600052601160045260246000fd5b5060010190565b8183823760009101908152919050565b81835281816020850137506000828201602090810191909152601f909101601f19169091010190565b868152608060208201526000614cb3608083018789614c70565b8281036040840152614cc6818688614c70565b915050826060830152979650505050505050565b600060208284031215614cec57600080fd5b8151610b7981614a0d565b606081526000614d0b606083018789614c70565b8281036020840152614d1e818688614c70565b9150508260408301529695505050505050565b60068110614d4f57634e487b7160e01b600052602160045260246000fd5b9052565b60208101610e108284614d31565b600060208284031215614d7357600080fd5b5051919050565b6020815260006143d1602083018486614c70565b60008251614da08184602087016140f7565b9190910192915050565b6000808335601e19843603018112614dc157600080fd5b83018035915067ffffffffffffffff821115614ddc57600080fd5b60200191503681900382131561228657600080fd5b604081526000614e04604083018561411b565b90506001600160a01b03831660208301529392505050565b89815260c060208201526000614e3660c083018a8c614c70565b8281036040840152614e4981898b614c70565b90508660608401528281036080840152614e64818688614c70565b9150508260a08301529a9950505050505050505050565b600181811c90821680614e8f57607f821691505b602082108103614eaf57634e487b7160e01b600052602260045260246000fd5b50919050565b600080600080600060a08688031215614ecd57600080fd5b505083359560208501359550604085013594606081013594506080013592509050565b600080600080600060a08688031215614f0857600080fd5b8535945060208601359350604086013567ffffffffffffffff80821115614f2e57600080fd5b614f3a89838a01614346565b94506060880135915080821115614f5057600080fd5b50614f5d88828901614346565b95989497509295608001359392505050565b8281526040602082015260006143d1604083018461411b565b60008060408385031215614f9b57600080fd5b82519150602083015167ffffffffffffffff811115614fb957600080fd5b8301601f81018513614fca57600080fd5b8051614fd86143658261431e565b818152866020838501011115614fed57600080fd5b614ffe8260208301602086016140f7565b8093505050509250929050565b60608152600061501f606083018688614c70565b8281036020840152615031818661411b565b91505082604083015295945050505050565b86815285602082015260c06040820152600061506260c083018761411b565b8281036060840152615074818761411b565b905084608084015282810360a084015261508e818561411b565b9998505050505050505050565b60008060008060008060c087890312156150b457600080fd5b8635955060208701359450604087013567ffffffffffffffff808211156150da57600080fd5b6150e68a838b01614346565b955060608901359150808211156150fc57600080fd5b6151088a838b01614346565b94506080890135935060a089013591508082111561512557600080fd5b5061513289828a01614346565b9150509295509295509295565b6000806040838503121561515257600080fd5b8251915060208301516151648161447d565b809150509250929050565b608081526000615183608083018789614c70565b8281036020840152615195818761411b565b60408401959095525050606001529392505050565b88815260e0602082015260006151c460e08301898b614c70565b82810360408401526151d6818961411b565b905082810360608401526151ea818861411b565b608084019690965250506001600160a01b039290921660a083015260c09091015295945050505050565b6000808585111561522457600080fd5b8386111561523157600080fd5b5050820193919092039150565b6001600160e01b031981358181169160048510156152665780818660040360031b1b83161692505b505092915050565b8a815289602082015260e06040820152600061528e60e083018a8c614c70565b82810360608401526152a181898b614c70565b905086608084015282810360a08401526152bc818688614c70565b9150508260c08301529b9a5050505050505050505050565b8381526152e46020820184614d31565b6060604082015260006152fa606083018461411b565b95945050505050565b604081016153118285614d31565b6001600160a01b03831660208301529392505050565b6001600160a01b03831681526040602082015260006143d1604083018461411b565b60408152600061535d604083018587614c70565b82810360208401526133fe818561411b565b8481528360208201526153856040820184614d31565b6080606082015260006133fe608083018461411b565b600082601f8301126153ac57600080fd5b8135602067ffffffffffffffff808311156153c9576153c96142d7565b8260051b6153d88382016142ed565b93845285810183019383810190888611156153f257600080fd5b84880192505b8583101561542e578235848111156154105760008081fd5b61541e8a87838c0101614346565b83525091840191908401906153f8565b98975050505050505050565b6000806000806080858703121561545057600080fd5b843561545b8161447d565b9350602085013567ffffffffffffffff8082111561547857600080fd5b61548488838901614346565b9450604087013591508082111561549a57600080fd5b6154a68883890161539b565b935060608701359150808211156154bc57600080fd5b506154c98782880161539b565b91505092959194509250565b6040815260006154e8604083018561411b565b82810360208401526152fa818561411b565b87815286602082015260a06040820152600061551a60a083018789614c70565b828103606084015261552d818688614c70565b91505082608083015298975050505050505050565b8681528560208201526001600160a01b038516604082015260c06060820152600061557060c083018661411b565b8281036080840152615582818661411b565b91505060ff831660a0830152979650505050505050565b6001600160a01b03851681526080602082015260006155bb608083018661411b565b82810360408401526155cd818661411b565b91505060ff8316606083015295945050505050565b60a0815260006155f560a083018961411b565b8281036020840152615607818961411b565b905060ff871660408401528281036060840152615624818761411b565b9050828103608084015261508e818587614c70565b86815285602082015260c06040820152600061565860c083018761411b565b828103606084015261566a818761411b565b905060ff8516608084015282810360a084015261508e818561411b565b6000806000806080858703121561569d57600080fd5b84359350602085013592506156b4604086016147ae565b9150606085013567ffffffffffffffff8111156156d057600080fd5b6154c987828801614346565b60008060008060008060c087890312156156f557600080fd5b8635955060208701359450604087013567ffffffffffffffff8082111561571b57600080fd5b6157278a838b01614346565b9550606089013591508082111561573d57600080fd5b6157498a838b01614346565b945061575760808a01614768565b935060a089013591508082111561512557600080fd5b60006001600160a01b03808b16835260e0602084015261579160e084018a8c614c70565b83810360408501526157a3818a61411b565b905083810360608501526157b7818961411b565b905083810360808501526157cb818861411b565b60a0850196909652509290921660c090910152509695505050505050565b60a0815260006157fd60a08301888a614c70565b828103602084015261580f818861411b565b90508281036040840152615823818761411b565b90508281036060840152615837818661411b565b915050826080830152979650505050505050565b60006001600160a01b03808916835260a0602084015261586f60a08401888a614c70565b8381036040850152615881818861411b565b90508381036060850152615895818761411b565b925050808416608084015250979650505050505050565b6060815260006158c0606083018688614c70565b82810360208401526158d2818661411b565b905082810360408401526158e6818561411b565b979650505050505050565b601f82111561237c57600081815260208120601f850160051c810160208610156159185750805b601f850160051c820191505b818110156135a857828155600101615924565b815167ffffffffffffffff811115615951576159516142d7565b6159658161595f8454614e7b565b846158f1565b602080601f83116001811461599a57600084156159825750858301515b600019600386901b1c1916600185901b1785556135a8565b600085815260208120601f198616915b828110156159c9578886015182559484019460019091019084016159aa565b50858210156159e75787850151600019600388901b60f8161c191681555b5050505050600190811b0190555056feee35723ac350a69d2a92d3703f17439cbaadf2f093a21ba5bf5f1a53eb2a14d802016836a56b71f0d02689e69e326f4f4c1b9057164ef592671cf0d37c8040c0608060405234801561001057600080fd5b50610162806100206000396000f3fe60806040526004361061001d5760003560e01c806277436014610022575b600080fd5b61003561003036600461007b565b610037565b005b8051602082016000f061004957600080fd5b50565b7f4e487b7100000000000000000000000000000000000000000000000000000000600052604160045260246000fd5b60006020828403121561008d57600080fd5b813567ffffffffffffffff808211156100a557600080fd5b818401915084601f8301126100b957600080fd5b8135818111156100cb576100cb61004c565b604051601f8201601f19908116603f011681019083821181831017156100f3576100f361004c565b8160405282815287602084870101111561010c57600080fd5b82602086016020830137600092810160200192909252509594505050505056fea264697066735822122094780ce55d28f1d568f4e0ab1b9dc230b96e952b73d2e06456fbff2289fa27f464736f6c63430008150033a26469706673582212200acf19c9f5201e21fbe5c89b8dd058f44798cf0733c10d50067eadd8d10d92f264736f6c63430008150033",
  "linkReferences": {},
  "deployedLinkReferences": {}
}