{
  "_format": "hh-sol-artifact-1",
  "contractName": "TokenTransfer",
  "sourceName": "contracts/ERC20Token.sol",
  "abi": [
    {
      "inputs": [
        {
          "internalType": "address",
          "name": "_token",
          "type": "address"
        },
        {
          "internalType": "address",
          "name": "_account",
          "type": "address"
        }
      ],
      "name": "checkBalance",
      "outputs": [
        {
          "internalType": "uint256",
          "name": "",
          "type": "uint256"
        }
      ],
      "stateMutability": "view",
      "type": "function"
    },
    {
      "inputs": [
        {
          "internalType": "address",
          "name": "_token",
          "type": "address"
        },
        {
          "internalType": "address",
          "name": "_from",
          "type": "address"
        },
        {
          "internalType": "address",
          "name": "_to",
          "type": "address"
        },
        {
          "internalType": "uint256",
          "name": "_amount",
          "type": "uint256"
        }
      ],
      "name": "transferTokens",
      "outputs": [],
      "stateMutability": "nonpayable",
      "type": "function"
    }
  ],
  "bytecode": "0x608060405234801561001057600080fd5b50610509806100206000396000f3fe608060405234801561001057600080fd5b50600436106100365760003560e01c806368155ec11461003b57806377b76ec314610057575b600080fd5b61005560048036038101906100509190610289565b610087565b005b610071600480360381019061006c919061024d565b610161565b60405161007e91906103f1565b60405180910390f35b60008490508073ffffffffffffffffffffffffffffffffffffffff166323b872dd8585856040518463ffffffff1660e01b81526004016100c99392919061039a565b602060405180830381600087803b1580156100e357600080fd5b505af11580156100f7573d6000803e3d6000fd5b505050506040513d601f19601f8201168201806040525081019061011b91906102ec565b61015a576040517f08c379a0000000000000000000000000000000000000000000000000000000008152600401610151906103d1565b60405180910390fd5b5050505050565b6000808390508073ffffffffffffffffffffffffffffffffffffffff166370a08231846040518263ffffffff1660e01b81526004016101a0919061037f565b60206040518083038186803b1580156101b857600080fd5b505afa1580156101cc573d6000803e3d6000fd5b505050506040513d601f19601f820116820180604052508101906101f09190610315565b91505092915050565b6000813590506102088161048e565b92915050565b60008151905061021d816104a5565b92915050565b600081359050610232816104bc565b92915050565b600081519050610247816104bc565b92915050565b6000806040838503121561026057600080fd5b600061026e858286016101f9565b925050602061027f858286016101f9565b9150509250929050565b6000806000806080858703121561029f57600080fd5b60006102ad878288016101f9565b94505060206102be878288016101f9565b93505060406102cf878288016101f9565b92505060606102e087828801610223565b91505092959194509250565b6000602082840312156102fe57600080fd5b600061030c8482850161020e565b91505092915050565b60006020828403121561032757600080fd5b600061033584828501610238565b91505092915050565b6103478161041d565b82525050565b600061035a600f8361040c565b915061036582610465565b602082019050919050565b6103798161045b565b82525050565b6000602082019050610394600083018461033e565b92915050565b60006060820190506103af600083018661033e565b6103bc602083018561033e565b6103c96040830184610370565b949350505050565b600060208201905081810360008301526103ea8161034d565b9050919050565b60006020820190506104066000830184610370565b92915050565b600082825260208201905092915050565b60006104288261043b565b9050919050565b60008115159050919050565b600073ffffffffffffffffffffffffffffffffffffffff82169050919050565b6000819050919050565b7f5472616e73666572206661696c65640000000000000000000000000000000000600082015250565b6104978161041d565b81146104a257600080fd5b50565b6104ae8161042f565b81146104b957600080fd5b50565b6104c58161045b565b81146104d057600080fd5b5056fea2646970667358221220d0fc80cf348fdd8c51522dd386d0c7b1fe4749011438be4809bef0644fb1e6de64736f6c63430008040033",
  "linkReferences": {},
  "deployedLinkReferences": {}
}